:060000000A128A1100291A
:10000800F000030EF1000B180E20710E8300F00EA5
:10001800700E090003138312061C870A861C8703C7
:040028000B100800B1
:100200000F210621272103138312052903138316C7
:10021000161496140313831206080B100800031714
:1002200083168801890103138316061486140313A9
:100230008316870103138316811303138316950115
:1002400015149514031383128701860108008B1778
:060250008B150B100800E5
:04400E00D420FF3F7C
:00000001FF
